:020000040800F2
:1000000008080020D5100008350200083702000853
:100010003B0200083F020008430200080000000005
:10002000000000000000000000000000470200087F
:1000300049020008000000004B0200084D020008C1
:10004000EF100008EF100008EF100008EF10000894
:10005000EF100008EF10000845070008EF10000837
:10006000EF100008710700089B070008EF10000858
:10007000EF100008EF100008EF100008EF10000864
:10008000EF100008EF100008EF100008EF10000854
:10009000EF100008EF100008EF100008EF10000844
:1000A000EF100008EF100008EF100008EF10000834
:1000B000EF100008EF100008EF100008EF10000824
:1000C000EF100008EF100008EF100008EF10000814
:1000D000EF1000083D060008890E0008EF10000828
:1000E000EF100008EF100008EF100008EF100008F4
:1000F000EF100008EF100008EF100008EF100008E4
:10010000EF100008EF100008EF100008EF100008D3
:10011000EF100008EF100008EF100008EF100008C3
:10012000EF100008EF100008EF100008EF100008B3
:1001300000F002F800F03AF80AA090E8000C8244BF
:100140008344AAF10107DA4501D100F02FF8AFF29C
:10015000090EBAE80F0013F0010F18BFFB1A43F0A5
:1001600001031847BC1D0000DC1D0000103A24BF2D
:1001700078C878C1FAD8520724BF30C830C144BF0C
:1001800004680C607047000000230024002500264E
:10019000103A28BF78C1FBD8520728BF30C148BFEA
:1001A0000B6070471FB51FBD10B510BD01F072FE8A
:1001B0001146FFF7F7FF00F009F801F0A4FE03B4C1
:1001C000FFF7F2FF03BC00F0DFF900004FF4A0607E
:1001D00000F0A0FF00F014FF00F02AF900F04CF945
:1001E00000F066F94FF4165000F0DCF900F052FA16
:1001F0004FF4165000F065FE15E00B480088B0F58E
:10020000004F10D10020084908800848C078112804
:1002100009D10748006808B9012000E0002004491E
:10022000086000F0E9FAE8E71C0000209C000020CC
:1002300094812142704700BFFEE700BFFEE700BF88
:10024000FEE700BFFEE77047704770477047000049
:100250000CB50020019000906C48006840F480309C
:100260006A49086000BF6948006800F400300090E7
:100270000198401C0190009818B90198B0F5A06F42
:10028000F1D16248006800F4003010B10120009004
:1002900001E0002000900098012843D15C480068EC
:1002A00040F010005A4908600846006820F003003A
:1002B00008600846006840F0020008605348406843
:1002C000524948600846406848600846406840F423
:1002D000806048600846406820F47C10486008460A
:1002E000406840F4E81048600846006840F08070BC
:1002F000086000BF4548006800F000700028F9D091
:100300004248406820F00300404948600846406881
:1003100040F00200486000BF3C48406800F00C001C
:100320000828F9D10CBD10B5FFF792FF10BD10B52C
:100330003648006840F001003449086008464068CB
:10034000344908403149486008460068324908404D
:100350002E4908600846006820F48020086008469E
:10036000406820F4FE0048604FF41F008860FFF7EB
:10037000DAFF4FF000602949086010BD10B5002178
:1003800000200022214B5B6803F00C0121B10429FD
:1003900006D0082928D107E0214B224C236027E012
:1003A0001F4B204C236023E0184B5B6803F4701054
:1003B000164B5B6803F48032022303EB904022B9B2
:1003C000194B4343174C23600DE0104B5B6803F45B
:1003D000003323B1144B4343124C236003E0104B12
:1003E0004343104C236003E00D4B0E4C236000BFD1
:1003F00000BF064B5B68C3F303130C4CE15C094B75
:100400001B68CB40074C236010BD00000010024069
:10041000002002400000FFF8FFFFF6FE08ED00E0BC
:1004200000127A000000002000093D0004000020B6
:1004300008B50121482001F0F7F92020ADF80000AF
:1004400010208DF8030003208DF80200694608484B
:1004500000F02EFF2021064800F0D7FF694605482E
:1004600000F026FF2021034800F0CFFF08BD000068
:10047000000C01400018014008B50121082001F0DE
:10048000D3F94FF48070ADF8000010208DF8030010
:1004900003208DF802006946044800F009FF4FF47C
:1004A0008071024800F0B3FF08BD0000000C01405D
:1004B00008B50121442001F0B7F91820ADF800007B
:1004C00048208DF8030069462C4800F0F1FE012019
:1004D000ADF8000028208DF803006946284800F098
:1004E000E7FE08BD10B5044614B101202549087087
:1004F0002448007858B31021204800F06CFF50B118
:1005000008211E4800F067FF28B101211C4800F0B7
:1005100062FF01281BD10A2000F0AFFD002019491D
:1005200008701021154800F056FF08B9012010BDD1
:100530000821124800F04FFF08B90220F7E7012117
:100540000F4800F048FF012815D10320EFE71021E4
:100550000A4800F040FF01280DD10821074800F0AB
:100560003AFF012807D10121054800F034FF10B9F6
:100570000120044908700020D9E70000001801405C
:10058000000801401400002000BF704700BF3D4A32
:10059000128802F04002002AF9D0C2B2394B1B1D6A
:1005A0001A80704710B586B00446012144F2040059
:1005B00001F03AF94FF40070ADF8140003208DF803
:1005C000160018208DF8170005A92F4800F070FEBE
:1005D0004FF48060ADF8140004208DF8170005A9D1
:1005E000294800F065FE25208DF8000003208DF8D5
:1005F00001008DF8020001208DF80300684600F02C
:100600008EFD01940020ADF80800ADF80A00ADF8A9
:100610000C00ADF810000C20ADF80E0001A919482F
:1006200001F0A9F9012240F22551164801F03BFAE8
:100630000121144801F02BFA06B010BD10B540F2AC
:100640002551104801F014FBD0B10E4801F090FA8A
:10065000C4B20E48008800F4004088B90B480088F6
:10066000C0F30D000A490C5408480088401C074993
:10067000088008460088052802DB4FF40040088007
:1006800010BD000000380140000801401C0000209F
:100690009C0000200EB5FFF70BFF0121084601F07A
:1006A000C3F80321042000F019FF08200190002066
:1006B0008DF808000C208DF8090001A801F02AFB34
:1006C0000421084600F00AFF1020019001A801F063
:1006D00021FB0021084600F001FF012001900820C5
:1006E0008DF8090001A801F015FB06208DF8000027
:1006F00002208DF8010003208DF8020001208DF802
:100700000300684600F00BFD09208DF80000022070
:100710008DF8010001208DF802008DF80300684675
:1007200000F0FDFC0A208DF8000002208DF8010089
:1007300000208DF8020001208DF80300684600F0CB
:10074000EEFC0EBD10B50A2000F097FC01212348F5
:1007500000F041FE012807D12148006808B90120B6
:1007600000E000201E490860012001F04AFB10BD96
:1007700010B50A2000F081FC08211A4800F02BFE79
:1007800038B91948006808B9012000E0002016496E
:100790000860082001F035FB10BD10B50A2000F0FC
:1007A0006CFC10210F4800F016FE98B90C48006848
:1007B00008B9012000E00020094908600B48D0F882
:1007C000940108B9012000E000200749086008A052
:1007D00001F022FB102001F014FB10BD00080140C5
:1007E00094812142001801409401234200002342D9
:1007F000414141414141000010B50521FC4800F054
:10080000C3FB10BD10B50521F94800F0BDFB4FF446
:10081000E17000F032FC0521F64800F0B5FB10BD98
:1008200010B50521F24800F0AFFB4FF4E17000F085
:1008300024FC0521EF4800F0A7FB4FF4E17000F025
:100840001CFC0521EC4800F09FFB10BD10B50521F4
:10085000E74800F099FB4FF4E17000F00EFC052131
:10086000E44800F091FB4FF4E17000F006FC052134
:10087000E14800F089FB4FF4E17000F0FEFB052138
:10088000DE4800F081FB10BD10B50521D84800F00E
:100890007BFB4FF4E17000F0F0FB0521D54800F040
:1008A00073FB4FF4E17000F0E8FB0521D24800F043
:1008B0006BFB4FF4E17000F0E0FB0521CF4800F046
:1008C00063FB4FF4E17000F0D8FB0521CC4800F049
:1008D0005BFB10BD10B50521C54800F055FB4FF47A
:1008E000E17000F0CAFB0521C24800F04DFB4FF457
:1008F000E17000F0C2FB0521BF4800F045FB4FF45A
:10090000E17000F0BAFB0521BC4800F03DFB4FF45C
:10091000E17000F0B2FB0521B94800F035FB4FF45F
:10092000E17000F0AAFB0521B64800F02DFB10BDD8
:1009300010B50521AE4800F027FB4FF4E17000F040
:100940009CFB0521AB4800F01FFB4FF4E17000F069
:1009500094FB0521A84800F017FB4FF4E17000F06C
:100960008CFB0521A54800F00FFB4FF4E17000F06F
:1009700084FB0521A24800F007FB4FF4E17000F072
:100980007CFB05219F4800F0FFFA4FF4E17000F076
:1009900074FB05219C4800F0F7FA10BD10B5052145
:1009A000934800F0F1FA4FF4E17000F066FB052186
:1009B000904800F0E9FA4FF4E17000F05EFB052189
:1009C0008D4800F0E1FA4FF4E17000F056FB05218C
:1009D0008A4800F0D9FA4FF4E17000F04EFB05218F
:1009E000874800F0D1FA4FF4E17000F046FB052192
:1009F000844800F0C9FA4FF4E17000F03EFB052195
:100A0000814800F0C1FA4FF4E17000F036FB052197
:100A10007E4800F0B9FA10BD10B50521744800F009
:100A2000B3FA4FF4E17000F028FB0521714800F0A3
:100A3000ABFA4FF4E17000F020FB05216E4800F0A6
:100A4000A3FA4FF4E17000F018FB05216B4800F0A9
:100A50009BFA4FF4E17000F010FB0521684800F0AC
:100A600093FA4FF4E17000F008FB0521654800F0AF
:100A70008BFA4FF4E17000F000FB0521624800F0B2
:100A800083FA4FF4E17000F0F8FA05215F4800F0B6
:100A90007BFA4FF4E17000F0F0FA05215C4800F0B9
:100AA00073FA10BD10B50521514800F06DFA4FF4EE
:100AB000E17000F0E2FA05214E4800F065FA4FF4CB
:100AC000E17000F0DAFA05214B4800F05DFA4FF4CE
:100AD000E17000F0D2FA0521484800F055FA4FF4D1
:100AE000E17000F0CAFA0521454800F04DFA4FF4D4
:100AF000E17000F0C2FA0521424800F045FA4FF4D7
:100B0000E17000F0BAFA05213F4800F03DFA4FF4D9
:100B1000E17000F0B2FA05213C4800F035FA4FF4DC
:100B2000E17000F0AAFA0521394800F02DFA4FF4DF
:100B3000E17000F0A2FA0521364800F025FA10BD58
:100B400010B50521344800F01FFA4FF4E17000F0B1
:100B500094FA10BD10B505212F4800F015FA4FF496
:100B6000E17000F08AFA05212C4800F00DFA4FF4EC
:100B7000E17000F082FA10BD10B50521264800F0A2
:100B800003FA4FF4E17000F078FA0521234800F0F1
:100B9000FBF94FF4E17000F070FA0521204800F0F5
:100BA000F3F94FF4E17000F068FA10BD10B50521BB
:100BB000194800F0E9F94FF4E17000F05EFA052100
:100BC000164800F0E1F94FF4E17000F056FA052103
:100BD000134800F0D9F94FF4E17000F04EFA052106
:100BE000104800F0D1F94FF4E17000F046FA10BD62
:100BF0001E00002023000020280000202D000020DF
:100C000032000020370000203C000020410000207E
:100C1000460000204B00002050000020550000201E
:100C20005A0000205F00002010B505218D4800F01B
:100C3000ABF94FF4E17000F020FA05218A4800F08A
:100C4000A3F94FF4E17000F018FA0521874800F08D
:100C50009BF94FF4E17000F010FA0521844800F090
:100C600093F94FF4E17000F008FA0521814800F093
:100C70008BF94FF4E17000F000FA10BD10B50521BA
:100C8000784800F081F94FF4E17000F0F6F90521A1
:100C9000754800F079F94FF4E17000F0EEF90521A4
:100CA000724800F071F94FF4E17000F0E6F90521A7
:100CB0006F4800F069F94FF4E17000F0DEF90521AA
:100CC0006C4800F061F94FF4E17000F0D6F90521AD
:100CD000694800F059F94FF4E17000F0CEF910BD09
:100CE00010B505215F4800F04FF94FF4E17000F0B6
:100CF000C4F905215C4800F047F94FF4E17000F0B9
:100D0000BCF90521594800F03FF94FF4E17000F0BB
:100D1000B4F90521564800F037F94FF4E17000F0BE
:100D2000ACF90521534800F02FF94FF4E17000F0C1
:100D3000A4F90521504800F027F94FF4E17000F0C4
:100D40009CF905214D4800F01FF94FF4E17000F0C7
:100D500094F910BD10B50521424800F015F94FF483
:100D6000E17000F08AF905213F4800F00DF94FF4D9
:100D7000E17000F082F905213C4800F005F94FF4DC
:100D8000E17000F07AF90521394800F0FDF84FF4E0
:100D9000E17000F072F90521364800F0F5F84FF4E3
:100DA000E17000F06AF90521334800F0EDF84FF4E6
:100DB000E17000F062F90521304800F0E5F84FF4E9
:100DC000E17000F05AF905212D4800F0DDF84FF4EC
:100DD000E17000F052F910BD10B50521214800F076
:100DE000D3F84FF4E17000F048F905211E4800F0F7
:100DF000CBF84FF4E17000F040F905211B4800F0FA
:100E0000C3F84FF4E17000F038F90521184800F0FC
:100E1000BBF84FF4E17000F030F90521154800F0FF
:100E2000B3F84FF4E17000F028F90521124800F002
:100E3000ABF84FF4E17000F020F905210F4800F005
:100E4000A3F84FF4E17000F018F905210C4800F008
:100E50009BF84FF4E17000F010F90521094800F00B
:100E600093F810BD50000020550000205A000020CB
:100E70005F00002064000020690000206E00002058
:100E8000730000207800002010B540F2255156482C
:100E900000F0EEFEA0B1544800F06AFEC4B2534820
:100EA0000078052809DA52485049097844544F48D7
:100EB0000078401C4D49087002E000204B49087042
:100EC00010BD10B586B004460121242000F0ACFC12
:100ED0000121480400F0B5FC8020ADF8140010207A
:100EE0008DF8170003208DF8160005A9414800F081
:100EF000DFF90420ADF8140018208DF8170005A9BB
:100F00003D4800F0D5F90820ADF8140004208DF814
:100F1000170005A9384800F0CBF90121480400F07A
:100F2000AAFC00214FF4003000F0A5FC0194002041
:100F3000ADF80800ADF80A00ADF80C00ADF81000EF
:100F40000C20ADF80E0001A9274800F014FD262062
:100F50008DF8000003208DF801008DF802000120BB
:100F60008DF80300684600F0DAF8012240F22551BE
:100F70001D4800F098FD01211B4800F088FD00206D
:100F80001E49086006B010BD70B505460E4601202A
:100F90001A49086000240CE000BF4021124800F00C
:100FA00051FE0028F9D0295D0F4800F0DDFD601CDE
:100FB000C4B2B442F0DB00BF40210B4800F042FE57
:100FC0000028F9D00020094908700C49086070BD5C
:100FD0000146002000BF04E0054A125C0A54421C8E
:100FE000D0B20528F8DB70470044004082000020A2
:100FF0006401002000140140000801409C8122424D
:1010000010B56FF0040000F0D4F82E4800682E49A7
:10101000B0FBF1F02D4908700846007800EB400164
:10102000C1EBC0104FF6FF7101EAC00028490880EB
:1010300010BD0146254A12784A434FF0E0235A6119
:1010400000229A611A46126942F001021A6100BF39
:101050004FF0E022106900F001021AB100F4803272
:10106000002AF5D04FF0E022126922F001024FF081
:10107000E0231A6100229A6170470146144A1288DF
:101080004A434FF0E0235A6100229A611A461269DE
:1010900042F001021A6100BF4FF0E022106900F037
:1010A00001021AB100F48032002AF5D04FF0E0229C
:1010B000126922F001024FF0E0231A6100229A61C6
:1010C000704700000000002000127A008400002019
:1010D000860000200948804709480047FEE7FEE7F0
:1010E000FEE7FEE7FEE7FEE7FEE7FEE7FEE7FEE7D8
:1010F00004480549054A064B704700002F030008C5
:10110000310100080802002008080020080400201F
:101110000804002031490143314A1160704770B51D
:10112000002100230F22C47804B32D4C246804F45A
:10113000E064C4F5E064210AC1F10403CA404478C4
:1011400004FA03F18478144021430901254C067800
:10115000A155047804F01F050124AC4005786D11F9
:10116000AD0005F1E025C5F8004109E0047804F080
:101170001F050124AC401C4D0678761145F8264029
:1011800070BD1A4A0A400243154B1B1F1A60704774
:1011900039B1134A121D12680243114B1B1D1A600C
:1011A00006E00F4A121D126882430D4B1B1D1A6088
:1011B0007047042808D14FF0E021096941F004018B
:1011C0004FF0E022116107E04FF0E021096921F0C2
:1011D00004014FF0E0221161704700000000FA05A1
:1011E0000CED00E000E400E080E100E080FFFF1F84
:1011F00010B50446CC48844208D10121042000F0F7
:101200002DFB0021042000F029FB46E0C748844262
:1012100008D10121082000F021FB0021082000F066
:101220001DFB3AE0C248844208D10121102000F0A1
:1012300015FB0021102000F011FB2EE0BD48844278
:1012400008D10121202000F009FB0021202000F01E
:1012500005FB22E0B848844208D10121402000F07B
:10126000FDFA0021402000F0F9FA16E0B34884426C
:1012700008D10121802000F0F1FA0021802000F047
:10128000EDFA0AE0AE48844207D10121801500F052
:10129000E5FA0021A01500F0E1FA10BD10B501211A
:1012A000084600F0DBFA0021012000F0D7FA10BD5B
:1012B0002DE9F041024600250026002000230024ED
:1012C000002791F803C00CF00F0591F803C00CF053
:1012D000100CBCF1000F03D091F802C04CEA0505D8
:1012E00091F800C0BCF1000F31D0146800202BE051
:1012F0004FF0010C0CFA00F3B1F800C00CEA030641
:101300009E4220D183004FF00F0C0CFA03F7BC4330
:1013100005FA03FC4CEA040491F803C0BCF1280F61
:1013200006D14FF0010C0CFA00FCC2F814C00AE020
:1013300091F803C0BCF1480F05D14FF0010C0CFA35
:1013400000FCC2F810C0401C0828D1D31460B1F8CA
:1013500000C0BCF1FF0F34DD546800202EE000F126
:10136000080C4FF0010808FA0CF3B1F800C00CEAC1
:1013700003069E4221D183004FF00F0C0CFA03F7B5
:10138000BC4305FA03FC4CEA040491F803C0BCF129
:10139000280F05D100F1080C08FA0CF8C2F81480E7
:1013A00091F803C0BCF1480F07D100F1080C4FF0D1
:1013B000010808FA0CF8C2F81080401C0828CED3A7
:1013C0005460BDE8F0814FF6FF7101800221817009
:1013D0000421C17070470246002093680B400BB196
:1013E000012000E0002070470146886880B2704705
:1013F00002460020D3680B400BB1012000E0002022
:1014000070470146C86880B270470161704741610A
:1014100070470AB1016100E041617047C1607047E7
:101420004FF480320A4382618161826182698269FC
:10143000704702460020434B18684FF680731840EF
:1014400040EA021008433F4B186070473E49C861AC
:101450007047F0B50A46002300240021002500F063
:101460000046B6F1004F02D1364EF16901E0354E2B
:101470007168C0F3034583B200F44016B6F5401F0F
:1014800008D121F070612F4E766826F070662D4FDE
:101490007E6012E000F48016B6F5801F06D10326A8
:1014A00006FA05F4A14341F0706106E0460D3601ED
:1014B00003FA06F6B14341F0706122B1460D3601E0
:1014C00003FA06F6314300F00046B6F1004F02D1B0
:1014D0001C4EF16101E01B4E7160F0BD30B5002281
:1014E0008B071C0F0F2303FA04F2164B08338C10E2
:1014F00053F824309343134C08348D1044F82530AE
:1015000023468C1053F824308C07240F00FA04F47F
:1015100023430C4C08348D1044F8253030BD0A4963
:10152000DC3108607047000000080140000C0140F9
:10153000001001400014014000180140001C01404F
:10154000002001400000014000002042DF48006808
:1015500040F00100DD49086008464068DC49084069
:10156000DA49486008460068DA490840D749086007
:101570000846006820F4802008600846406820F48F
:10158000FE0048604FF41F0088607047CF4909682B
:1015900021F48031CD4A11601146096821F480217F
:1015A0001160B0F5803F03D0B0F5802F0ED106E07A
:1015B000C649096841F48031C44A116007E0C34953
:1015C000096841F4A021C14A116000E000BF00BFDA
:1015D000704710B501460022002300204A11012A5D
:1015E00002D1BA4C236806E0022A02D1B74C236A22
:1015F00001E0B64C636A01F01F02012494401C40D4
:101600000CB1012000E0002010BD38B50020009092
:101610000024002500BF3120FFF7DBFF05460098BE
:10162000401C00900098B0F5A06F01D0002DF2D0C2
:101630003120FFF7CEFF08B1012400E0002420464E
:1016400038BD01460020A14A106820F0F80040EAA9
:10165000C10010607047A049086070470246002032
:101660009A4B586820F47C1042EA01031843974BC8
:101670005860704798490866704701460020934AB1
:10168000506820F003000843506070478F4840685E
:1016900000F00C007047014600208C4A506820F092
:1016A000F00008435060704701460020874A5068A8
:1016B00020F4E06008435060704701460020834AF0
:1016C000506820F4605040EAC1005060704729B172
:1016D0007E4A527A02437D4B5A7204E07B4A527A28
:1016E00082437A4B5A7270477B49D8310860704701
:1016F00001460020754A506820F44040084350607D
:1017000070470021714A20321170704A82F820100F
:10171000012802D004280AD104E001216B4A2032BA
:10172000117005E00521694A2032117000E000BF08
:1017300000BF70476949086070476449096A0143FE
:10174000624A11627047654944390860704730B594
:1017500000210022002400235C4D6D6805F00C017F
:1017600021B1042905D0082923D105E05C4D05608D
:1017700022E05B4D05601FE0544D6D6805F470126A
:10178000524D6D6805F48034022505EB92421CB978
:10179000544D554305600BE04C4D6D6805F4003524
:1017A0001DB1504D5543056002E04D4D5543056058
:1017B00002E04B4D056000BF00BF444D6D6805F071
:1017C000F0010909484D6B5C0568DD4045603F4DFF
:1017D0006D6805F4E061090A434D6B5C4568DD40C6
:1017E00085603A4D6D6805F46051C90A3E4D6B5CE9
:1017F0004568DD40C560354D6D6805F44041890B95
:101800003A4D6B5CC568B5FBF3F5056130BD29B198
:101810002E4A526902432D4B5A6104E02B4A526909
:1018200082432A4B5A61704729B1284A9269024380
:10183000264B9A6104E0254A92698243234B9A61C0
:10184000704729B1214AD2690243204BDA6104E092
:101850001E4AD26982431D4BDA61704729B11B4A87
:10186000D2680243194BDA6004E0184AD268824316
:10187000164BDA60704729B1144A12690243134BC0
:101880001A6104E0114A12698243104B1A617047D1
:1018900012494039086070470F49C86470470B49C6
:1018A000C87170470948406A40F080700749486233
:1018B000704701460020054A92680A400AB101209B
:1018C00000E0002070470149887270470010024014
:1018D0000000FFF8FFFFF6FE000042428004424293
:1018E00000127A0000093D008800002098000020C6
:1018F00010B50446FB48844209D101218803FFF753
:10190000ADFF00214FF48040FFF7A8FF32E0F6481A
:10191000844209D101214804FFF7ADFF00214FF4B3
:101920000030FFF7A8FF25E0F048844209D10121EB
:101930008804FFF7A0FF00214FF48020FFF79BFFF2
:1019400018E0EB48844209D10121C804FFF793FF56
:1019500000214FF40020FFF78EFF0BE0E5488442A2
:1019600008D101210805FFF786FF00214FF4801000
:10197000FFF781FF10BD2DE9F04786B005460E4602
:101980000024A24600BFA1460027B08900B100BFD5
:101990002F462C8A4CF6FF700440F08804432C82BA
:1019A000AC894EF6F3100440B08831890843718940
:1019B00008430443AC81AC8A4FF6FF400440B08931
:1019C0000443AC8201A8FFF7C2FEC648874202D199
:1019D000DDF810A001E0DDF80CA0A88900F40040BB
:1019E00040B10AEBCA0000EB0A1031684900B0FBB5
:1019F000F1F807E00AEBCA0000EB0A103168890031
:101A0000B0FBF1F86420B8FBF0F004012009642178
:101A100001FB1089A88900F4004040B1322000EB9E
:101A2000C900B0FBF1F000F00700044308E03220E9
:101A300000EB09106421B0FBF1F000F00F0004434B
:101A40002C8106B0BDE8F0874FF4165101600021EB
:101A50008180C18001810C214181002181817047F9
:101A600010B502460020108A4FF2FF0318400B8881
:101A70004C8823438C882343CC882343184310820B
:101A800010BD0021018041808180C180704721B15B
:101A9000828942F40052828104E082894DF6FF730C
:101AA0001A4082817047F0B50346002400260025C5
:101AB000002040F66A17B94200D100BF1846C1F3B2
:101AC000421401F01F06012707FA06F5012C01D187
:101AD0000C3004E0022C01D1103000E014301AB1B7
:101AE00007682F43076002E00768AF430760F0BD57
:101AF0001AB1838A0B43838202E0838A8B438382F9
:101B00007047028A4FF6F0731A400282028A0A4333
:101B10000282704782894FF2FF731A408281828964
:101B20000A438281704721B1828942F00202828198
:101B300004E082894FF6FD731A4082817047028A61
:101B40004FF6DF731A400282028A0A43028270470C
:101B500021B1028A42F48042028204E0028A4BF6FA
:101B6000FF731A4002827047C1F3080282807047F7
:101B700001468888C0F308007047818941F001015F
:101B800081817047028BD2B20283028B42EA01222A
:101B900002837047028B02F47F420283028B0A4366
:101BA0000283704721B1828A42F02002828204E0DF
:101BB000828A4FF6DF731A408282704721B1828A8F
:101BC00042F01002828204E0828A4FF6EF731A40DC
:101BD0008282704721B1828A42F00802828204E048
:101BE000828A4FF6F7731A408282704721B1828948
:101BF00042F40042828103E08289C2F30E028281B4
:101C0000704721B1828A42F40062828204E0828AB3
:101C10004FF2FF731A4082827047828A4FF6FB733D
:101C20001A408282828A0A438282704721B1828A64
:101C300042F00202828204E0828A4FF6FD731A406B
:101C40008282704702460020B1F5007F00D100BFBC
:101C500013880B400BB1012000E00020704701F415
:101C60000072B2F5007F00D100BFCA430280704706
:101C700070B50246002400230025002040F66A16B5
:101C8000B14200D100BFC1F3421501F01F0301268C
:101C900006FA03F3012D02D19689334006E0022DA6
:101CA00002D1168A334001E0968A33400C12012695
:101CB00006FA04F41688344013B10CB1012000E098
:101CC000002070BD10B50022002340F66A14A14226
:101CD00000D100BF0A1201249440A3B2DC43048067
:101CE00010BD0000003801400044004000480040A2
:101CF000004C004000500040002044490860091D8D
:101D00000860091D0860091D086041483F491431F9
:101D10000860704700213D498279002A3AD00A467E
:101D2000126803689A430B461A600A1D126803681A
:101D30009A430B1D1A60027911440A6803681A431A
:101D40000A60324A0832126803689A432F4B0833FC
:101D50001A601A1D126803689A432C4B0C331A60E0
:101D60004279102A0ED11A1F126803681A43274BB2
:101D700008331A601A1D126803681A43234B0C3388
:101D80001A600DE02149427911440A6803681A4338
:101D90000A6005E0027911440A6803689A430A6000
:101DA00070470021016001710C2141710021817196
:101DB00070471649103109680143144A1032116006
:101DC000704701460020114A143212680A400AB1D5
:101DD000012000E0002070470C4914310860704772
:101DE000014600200022094B1B6803EA0102074B51
:101DF00014331B680B4013B10AB1012000E000202E
:101E00007047024914310860704700000004014027
:101E1000FFFF0F00704700000FB4044910B503AA7C
:101E2000029800F009F810BC5DF814FB18000020BF
:101E30007047704770477047074B70B50D467B443D
:101E400000F011F80446284600F020F810B14FF0D9
:101E5000FF3070BD204670BD4BE7FFFF01694A1C93
:101E600002610878704700B58FB0CDE901310021DB
:101E7000059105497944CDE903101146684600F003
:101E80002EF80FB000BD0000E5FFFFFF007B00F063
:101E900080007047754600F03FF8AE460500694681
:101EA000534620F00700854618B020B5FFF720F90B
:101EB000BDE820404FF000064FF000074FF000084B
:101EC0004FF0000B21F00701AC46ACE8C009ACE8CC
:101ED000C009ACE8C009ACE8C0098D4670472DE9DF
:101EE000F04106460024D6E90170F5688046304688
:101EF00003E04146B847641C3046A8470028F8D1A3
:101F00002046BDE8F08110B50446AFF300802046BE
:101F1000BDE81040FEF753B900487047A401002007
:101F2000401F0008000000209C0000006C01000819
:101F3000DC1F00089C0000206C07000088010008DE
:101F400000A24A0400000000000000000102030497
:101F500006070809010000000000000000008A01D7
:101F600001119B9A010211889A010311899A0104B7
:101F7000118E9A011A11909A011B11919A011C114C
:101F8000969A011D11979A011E11949A012011AA87
:101F90009B010211899B010311889B0104118F9BF6
:101FA000011A11919B011B11909B011C11979B0120
:101FB0001D11969B011E11959B012011AB80010103
:101FC00033B3000000000000000000000102030421
:0C1FD000010203040607080902040608C9
:0400000508000131BD
:00000001FF
